{
  "contractName": "NFTAuction",
  "abi": [
    {
      "inputs": [],
      "stateMutability": "nonpayable",
      "type": "constructor"
    },
    {
      "anonymous": false,
      "inputs": [
        {
          "indexed": true,
          "internalType": "address",
          "name": "owner",
          "type": "address"
        },
        {
          "indexed": true,
          "internalType": "address",
          "name": "approved",
          "type": "address"
        },
        {
          "indexed": true,
          "internalType": "uint256",
          "name": "tokenId",
          "type": "uint256"
        }
      ],
      "name": "Approval",
      "type": "event"
    },
    {
      "anonymous": false,
      "inputs": [
        {
          "indexed": true,
          "internalType": "address",
          "name": "owner",
          "type": "address"
        },
        {
          "indexed": true,
          "internalType": "address",
          "name": "operator",
          "type": "address"
        },
        {
          "indexed": false,
          "internalType": "bool",
          "name": "approved",
          "type": "bool"
        }
      ],
      "name": "ApprovalForAll",
      "type": "event"
    },
    {
      "anonymous": false,
      "inputs": [
        {
          "indexed": true,
          "internalType": "address",
          "name": "from",
          "type": "address"
        },
        {
          "indexed": true,
          "internalType": "address",
          "name": "to",
          "type": "address"
        },
        {
          "indexed": true,
          "internalType": "uint256",
          "name": "tokenId",
          "type": "uint256"
        }
      ],
      "name": "Transfer",
      "type": "event"
    },
    {
      "inputs": [
        {
          "internalType": "uint256",
          "name": "",
          "type": "uint256"
        }
      ],
      "name": "AuctionsOfNFT",
      "outputs": [
        {
          "internalType": "uint256",
          "name": "minBid",
          "type": "uint256"
        },
        {
          "internalType": "address payable",
          "name": "highestBidder",
          "type": "address"
        },
        {
          "internalType": "uint256",
          "name": "highestBid",
          "type": "uint256"
        },
        {
          "internalType": "uint256",
          "name": "endTime",
          "type": "uint256"
        },
        {
          "internalType": "bool",
          "name": "ended",
          "type": "bool"
        },
        {
          "internalType": "bool",
          "name": "claimed",
          "type": "bool"
        }
      ],
      "stateMutability": "view",
      "type": "function",
      "constant": true
    },
    {
      "inputs": [],
      "name": "NFTCounter",
      "outputs": [
        {
          "internalType": "uint256",
          "name": "",
          "type": "uint256"
        }
      ],
      "stateMutability": "view",
      "type": "function",
      "constant": true
    },
    {
      "inputs": [
        {
          "internalType": "uint256",
          "name": "",
          "type": "uint256"
        }
      ],
      "name": "allNFTs",
      "outputs": [
        {
          "internalType": "uint256",
          "name": "tokenID",
          "type": "uint256"
        },
        {
          "internalType": "string",
          "name": "tokenName",
          "type": "string"
        },
        {
          "internalType": "string",
          "name": "tokenURI",
          "type": "string"
        },
        {
          "internalType": "address payable",
          "name": "mintedBy",
          "type": "address"
        },
        {
          "internalType": "address payable",
          "name": "currentOwner",
          "type": "address"
        },
        {
          "internalType": "address payable",
          "name": "previousOwner",
          "type": "address"
        },
        {
          "internalType": "uint256",
          "name": "price",
          "type": "uint256"
        },
        {
          "internalType": "uint256",
          "name": "transNum",
          "type": "uint256"
        },
        {
          "internalType": "bool",
          "name": "onSale",
          "type": "bool"
        }
      ],
      "stateMutability": "view",
      "type": "function",
      "constant": true
    },
    {
      "inputs": [
        {
          "internalType": "address",
          "name": "to",
          "type": "address"
        },
        {
          "internalType": "uint256",
          "name": "tokenId",
          "type": "uint256"
        }
      ],
      "name": "approve",
      "outputs": [],
      "stateMutability": "nonpayable",
      "type": "function"
    },
    {
      "inputs": [
        {
          "internalType": "address",
          "name": "owner",
          "type": "address"
        }
      ],
      "name": "balanceOf",
      "outputs": [
        {
          "internalType": "uint256",
          "name": "",
          "type": "uint256"
        }
      ],
      "stateMutability": "view",
      "type": "function",
      "constant": true
    },
    {
      "inputs": [],
      "name": "collectionName",
      "outputs": [
        {
          "internalType": "string",
          "name": "",
          "type": "string"
        }
      ],
      "stateMutability": "view",
      "type": "function",
      "constant": true
    },
    {
      "inputs": [],
      "name": "collectionNameSymbol",
      "outputs": [
        {
          "internalType": "string",
          "name": "",
          "type": "string"
        }
      ],
      "stateMutability": "view",
      "type": "function",
      "constant": true
    },
    {
      "inputs": [
        {
          "internalType": "uint256",
          "name": "",
          "type": "uint256"
        },
        {
          "internalType": "address",
          "name": "",
          "type": "address"
        }
      ],
      "name": "fundsByBidder",
      "outputs": [
        {
          "internalType": "uint256",
          "name": "",
          "type": "uint256"
        }
      ],
      "stateMutability": "view",
      "type": "function",
      "constant": true
    },
    {
      "inputs": [
        {
          "internalType": "uint256",
          "name": "tokenId",
          "type": "uint256"
        }
      ],
      "name": "getApproved",
      "outputs": [
        {
          "internalType": "address",
          "name": "",
          "type": "address"
        }
      ],
      "stateMutability": "view",
      "type": "function",
      "constant": true
    },
    {
      "inputs": [
        {
          "internalType": "address",
          "name": "owner",
          "type": "address"
        },
        {
          "internalType": "address",
          "name": "operator",
          "type": "address"
        }
      ],
      "name": "isApprovedForAll",
      "outputs": [
        {
          "internalType": "bool",
          "name": "",
          "type": "bool"
        }
      ],
      "stateMutability": "view",
      "type": "function",
      "constant": true
    },
    {
      "inputs": [],
      "name": "name",
      "outputs": [
        {
          "internalType": "string",
          "name": "",
          "type": "string"
        }
      ],
      "stateMutability": "view",
      "type": "function",
      "constant": true
    },
    {
      "inputs": [
        {
          "internalType": "uint256",
          "name": "tokenId",
          "type": "uint256"
        }
      ],
      "name": "ownerOf",
      "outputs": [
        {
          "internalType": "address",
          "name": "",
          "type": "address"
        }
      ],
      "stateMutability": "view",
      "type": "function",
      "constant": true
    },
    {
      "inputs": [
        {
          "internalType": "address",
          "name": "from",
          "type": "address"
        },
        {
          "internalType": "address",
          "name": "to",
          "type": "address"
        },
        {
          "internalType": "uint256",
          "name": "tokenId",
          "type": "uint256"
        }
      ],
      "name": "safeTransferFrom",
      "outputs": [],
      "stateMutability": "nonpayable",
      "type": "function"
    },
    {
      "inputs": [
        {
          "internalType": "address",
          "name": "from",
          "type": "address"
        },
        {
          "internalType": "address",
          "name": "to",
          "type": "address"
        },
        {
          "internalType": "uint256",
          "name": "tokenId",
          "type": "uint256"
        },
        {
          "internalType": "bytes",
          "name": "_data",
          "type": "bytes"
        }
      ],
      "name": "safeTransferFrom",
      "outputs": [],
      "stateMutability": "nonpayable",
      "type": "function"
    },
    {
      "inputs": [
        {
          "internalType": "address",
          "name": "operator",
          "type": "address"
        },
        {
          "internalType": "bool",
          "name": "approved",
          "type": "bool"
        }
      ],
      "name": "setApprovalForAll",
      "outputs": [],
      "stateMutability": "nonpayable",
      "type": "function"
    },
    {
      "inputs": [
        {
          "internalType": "bytes4",
          "name": "interfaceId",
          "type": "bytes4"
        }
      ],
      "name": "supportsInterface",
      "outputs": [
        {
          "internalType": "bool",
          "name": "",
          "type": "bool"
        }
      ],
      "stateMutability": "view",
      "type": "function",
      "constant": true
    },
    {
      "inputs": [],
      "name": "symbol",
      "outputs": [
        {
          "internalType": "string",
          "name": "",
          "type": "string"
        }
      ],
      "stateMutability": "view",
      "type": "function",
      "constant": true
    },
    {
      "inputs": [
        {
          "internalType": "string",
          "name": "",
          "type": "string"
        }
      ],
      "name": "tokenNameExists",
      "outputs": [
        {
          "internalType": "bool",
          "name": "",
          "type": "bool"
        }
      ],
      "stateMutability": "view",
      "type": "function",
      "constant": true
    },
    {
      "inputs": [
        {
          "internalType": "uint256",
          "name": "tokenId",
          "type": "uint256"
        }
      ],
      "name": "tokenURI",
      "outputs": [
        {
          "internalType": "string",
          "name": "",
          "type": "string"
        }
      ],
      "stateMutability": "view",
      "type": "function",
      "constant": true
    },
    {
      "inputs": [
        {
          "internalType": "string",
          "name": "",
          "type": "string"
        }
      ],
      "name": "tokenURIExists",
      "outputs": [
        {
          "internalType": "bool",
          "name": "",
          "type": "bool"
        }
      ],
      "stateMutability": "view",
      "type": "function",
      "constant": true
    },
    {
      "inputs": [
        {
          "internalType": "address",
          "name": "from",
          "type": "address"
        },
        {
          "internalType": "address",
          "name": "to",
          "type": "address"
        },
        {
          "internalType": "uint256",
          "name": "tokenId",
          "type": "uint256"
        }
      ],
      "name": "transferFrom",
      "outputs": [],
      "stateMutability": "nonpayable",
      "type": "function"
    },
    {
      "inputs": [
        {
          "internalType": "string",
          "name": "_name",
          "type": "string"
        },
        {
          "internalType": "string",
          "name": "_tokenURI",
          "type": "string"
        },
        {
          "internalType": "uint256",
          "name": "_price",
          "type": "uint256"
        }
      ],
      "name": "mintNFT",
      "outputs": [],
      "stateMutability": "nonpayable",
      "type": "function"
    },
    {
      "inputs": [
        {
          "internalType": "uint256",
          "name": "_tokenID",
          "type": "uint256"
        }
      ],
      "name": "getTokenOwner",
      "outputs": [
        {
          "internalType": "address",
          "name": "",
          "type": "address"
        }
      ],
      "stateMutability": "view",
      "type": "function",
      "constant": true
    },
    {
      "inputs": [
        {
          "internalType": "uint256",
          "name": "_tokenID",
          "type": "uint256"
        }
      ],
      "name": "getTokenMetaData",
      "outputs": [
        {
          "internalType": "string",
          "name": "",
          "type": "string"
        }
      ],
      "stateMutability": "view",
      "type": "function",
      "constant": true
    },
    {
      "inputs": [],
      "name": "getNumberOfTokensMinted",
      "outputs": [
        {
          "internalType": "uint256",
          "name": "",
          "type": "uint256"
        }
      ],
      "stateMutability": "view",
      "type": "function",
      "constant": true
    },
    {
      "inputs": [
        {
          "internalType": "address",
          "name": "_owner",
          "type": "address"
        }
      ],
      "name": "getTotalNumberOfTokensOwnedByAnAddress",
      "outputs": [
        {
          "internalType": "uint256",
          "name": "",
          "type": "uint256"
        }
      ],
      "stateMutability": "view",
      "type": "function",
      "constant": true
    },
    {
      "inputs": [
        {
          "internalType": "uint256",
          "name": "_tokenID",
          "type": "uint256"
        },
        {
          "internalType": "uint256",
          "name": "_minBid",
          "type": "uint256"
        },
        {
          "internalType": "uint256",
          "name": "_endTime",
          "type": "uint256"
        }
      ],
      "name": "beginAuction",
      "outputs": [
        {
          "internalType": "bool",
          "name": "success",
          "type": "bool"
        }
      ],
      "stateMutability": "nonpayable",
      "type": "function"
    },
    {
      "inputs": [
        {
          "internalType": "uint256",
          "name": "_tokenID",
          "type": "uint256"
        },
        {
          "internalType": "uint256",
          "name": "newBid",
          "type": "uint256"
        }
      ],
      "name": "increaseBid",
      "outputs": [
        {
          "internalType": "bool",
          "name": "success",
          "type": "bool"
        }
      ],
      "stateMutability": "nonpayable",
      "type": "function"
    },
    {
      "inputs": [
        {
          "internalType": "uint256",
          "name": "_tokenID",
          "type": "uint256"
        }
      ],
      "name": "endAuction",
      "outputs": [
        {
          "internalType": "bool",
          "name": "success",
          "type": "bool"
        }
      ],
      "stateMutability": "nonpayable",
      "type": "function"
    },
    {
      "inputs": [
        {
          "internalType": "uint256",
          "name": "_tokenID",
          "type": "uint256"
        }
      ],
      "name": "withdraw",
      "outputs": [
        {
          "internalType": "bool",
          "name": "success",
          "type": "bool"
        }
      ],
      "stateMutability": "nonpayable",
      "type": "function"
    },
    {
      "inputs": [
        {
          "internalType": "uint256",
          "name": "_tokenID",
          "type": "uint256"
        }
      ],
      "name": "claimNFT",
      "outputs": [
        {
          "internalType": "bool",
          "name": "success",
          "type": "bool"
        }
      ],
      "stateMutability": "payable",
      "type": "function",
      "payable": true
    }
  ],
  "bytecode": "0x60806040523480156200001157600080fd5b506040518060400160405280600e81526020017f4e465420436f6c6c656374696f6e0000000000000000000000000000000000008152506040518060400160405280600381526020017f4e465400000000000000000000000000000000000000000000000000000000008152508160009080519060200190620000969291906200023c565b508060019080519060200190620000af9291906200023c565b505050620000c26200010860201b60201c565b60079080519060200190620000d99291906200023c565b50620000ea620001a260201b60201c565b60089080519060200190620001019291906200023c565b5062000351565b60606000805462000119906200031b565b80601f016020809104026020016040519081016040528092919081815260200182805462000147906200031b565b8015620001985780601f106200016c5761010080835404028352916020019162000198565b820191906000526020600020905b8154815290600101906020018083116200017a57829003601f168201915b5050505050905090565b606060018054620001b3906200031b565b80601f0160208091040260200160405190810160405280929190818152602001828054620001e1906200031b565b8015620002325780601f10620002065761010080835404028352916020019162000232565b820191906000526020600020905b8154815290600101906020018083116200021457829003601f168201915b5050505050905090565b8280546200024a906200031b565b90600052602060002090601f0160209004810192826200026e5760008555620002ba565b82601f106200028957805160ff1916838001178555620002ba565b82800160010185558215620002ba579182015b82811115620002b95782518255916020019190600101906200029c565b5b509050620002c99190620002cd565b5090565b5b80821115620002e8576000816000905550600101620002ce565b5090565b7f4e487b7100000000000000000000000000000000000000000000000000000000600052602260045260246000fd5b600060028204905060018216806200033457607f821691505b602082108114156200034b576200034a620002ec565b5b50919050565b6157ff80620003616000396000f3fe6080604052600436106101d85760003560e01c80636f9507f911610102578063b9a2de3a11610095578063cc151f3a11610064578063cc151f3a14610799578063e5326ab1146107c4578063e985e9c5146107ef578063fe5c873a1461082c576101d8565b8063b9a2de3a14610698578063bf162d67146106d5578063c21b74941461071a578063c87b56dd1461075c576101d8565b8063a22cb465116100d1578063a22cb465146105cc578063a46b1fac146105f5578063a5cd761f14610632578063b88d4fde1461066f576101d8565b80636f9507f9146104fc57806370a082311461052757806395d89b41146105645780639bd2a5741461058f576101d8565b80632e1a7d4d1161017a5780635508d8e1116101495780635508d8e11461042e5780636352211e1461045957806364b309071461049657806367c623cf146104bf576101d8565b80632e1a7d4d1461034e57806342842e0e1461038b57806343902850146103b457806343d32ae7146103f1576101d8565b8063095ea7b3116101b6578063095ea7b3146102825780631dd92a66146102ab57806323b872dd146102e857806326fe306514610311576101d8565b806301ffc9a7146101dd57806306fdde031461021a578063081812fc14610245575b600080fd5b3480156101e957600080fd5b5061020460048036038101906101ff919061407a565b61085c565b60405161021191906140c2565b60405180910390f35b34801561022657600080fd5b5061022f61093e565b60405161023c9190614176565b60405180910390f35b34801561025157600080fd5b5061026c600480360381019061026791906141ce565b6109d0565b604051610279919061423c565b60405180910390f35b34801561028e57600080fd5b506102a960048036038101906102a49190614283565b610a55565b005b3480156102b757600080fd5b506102d260048036038101906102cd91906142c3565b610b6d565b6040516102df91906140c2565b60405180910390f35b3480156102f457600080fd5b5061030f600480360381019061030a9190614303565b610f82565b005b34801561031d57600080fd5b5061033860048036038101906103339190614356565b610fe2565b60405161034591906143a5565b60405180910390f35b34801561035a57600080fd5b50610375600480360381019061037091906141ce565b611007565b60405161038291906140c2565b60405180910390f35b34801561039757600080fd5b506103b260048036038101906103ad9190614303565b611347565b005b3480156103c057600080fd5b506103db60048036038101906103d691906143c0565b611367565b6040516103e891906143a5565b60405180910390f35b3480156103fd57600080fd5b5061041860048036038101906104139190614522565b61137e565b60405161042591906140c2565b60405180910390f35b34801561043a57600080fd5b506104436113b4565b60405161045091906143a5565b60405180910390f35b34801561046557600080fd5b50610480600480360381019061047b91906141ce565b6113ba565b60405161048d919061423c565b60405180910390f35b3480156104a257600080fd5b506104bd60048036038101906104b8919061456b565b61146c565b005b3480156104cb57600080fd5b506104e660048036038101906104e191906141ce565b6117f5565b6040516104f39190614176565b60405180910390f35b34801561050857600080fd5b5061051161180d565b60405161051e9190614176565b60405180910390f35b34801561053357600080fd5b5061054e600480360381019061054991906143c0565b61189b565b60405161055b91906143a5565b60405180910390f35b34801561057057600080fd5b50610579611953565b6040516105869190614176565b60405180910390f35b34801561059b57600080fd5b506105b660048036038101906105b191906145f6565b6119e5565b6040516105c391906140c2565b60405180910390f35b3480156105d857600080fd5b506105f360048036038101906105ee9190614675565b611fb8565b005b34801561060157600080fd5b5061061c60048036038101906106179190614522565b612139565b60405161062991906140c2565b60405180910390f35b34801561063e57600080fd5b50610659600480360381019061065491906141ce565b61216f565b604051610666919061423c565b60405180910390f35b34801561067b57600080fd5b5061069660048036038101906106919190614756565b612186565b005b3480156106a457600080fd5b506106bf60048036038101906106ba91906141ce565b6121e8565b6040516106cc91906140c2565b60405180910390f35b3480156106e157600080fd5b506106fc60048036038101906106f791906141ce565b6127e2565b604051610711999897969594939291906147fa565b60405180910390f35b34801561072657600080fd5b50610741600480360381019061073c91906141ce565b6129ad565b60405161075396959493929190614895565b60405180910390f35b34801561076857600080fd5b50610783600480360381019061077e91906141ce565b612a23565b6040516107909190614176565b60405180910390f35b3480156107a557600080fd5b506107ae612b75565b6040516107bb91906143a5565b60405180910390f35b3480156107d057600080fd5b506107d9612b84565b6040516107e69190614176565b60405180910390f35b3480156107fb57600080fd5b50610816600480360381019061081191906148f6565b612c12565b60405161082391906140c2565b60405180910390f35b610846600480360381019061084191906141ce565b612ca6565b60405161085391906140c2565b60405180910390f35b60007f80ac58cd000000000000000000000000000000000000000000000000000000007bffffffffffffffffffffffffffffffffffffffffffffffffffffffff1916827bffffffffffffffffffffffffffffffffffffffffffffffffffffffff1916148061092757507f5b5e139f000000000000000000000000000000000000000000000000000000007bffffffffffffffffffffffffffffffffffffffffffffffffffffffff1916827bffffffffffffffffffffffffffffffffffffffffffffffffffffffff1916145b806109375750610936826133b5565b5b9050919050565b60606000805461094d90614965565b80601f016020809104026020016040519081016040528092919081815260200182805461097990614965565b80156109c65780601f1061099b576101008083540402835291602001916109c6565b820191906000526020600020905b8154815290600101906020018083116109a957829003601f168201915b5050505050905090565b60006109db8261341f565b610a1a576040517f08c379a0000000000000000000000000000000000000000000000000000000008152600401610a1190614a09565b60405180910390fd5b6004600083815260200190815260200160002060009054906101000a900473ffffffffffffffffffffffffffffffffffffffff169050919050565b6000610a60826113ba565b90508073ffffffffffffffffffffffffffffffffffffffff168373ffffffffffffffffffffffffffffffffffffffff161415610ad1576040517f08c379a0000000000000000000000000000000000000000000000000000000008152600401610ac890614a9b565b60405180910390fd5b8073ffffffffffffffffffffffffffffffffffffffff16610af061348b565b73ffffffffffffffffffffffffffffffffffffffff161480610b1f5750610b1e81610b1961348b565b612c12565b5b610b5e576040517f08c379a0000000000000000000000000000000000000000000000000000000008152600401610b5590614b2d565b60405180910390fd5b610b688383613493565b505050565b600082610b798161341f565b610bb8576040517f08c379a0000000000000000000000000000000000000000000000000000000008152600401610baf90614b99565b60405180910390fd5b83610bc2816113ba565b73ffffffffffffffffffffffffffffffffffffffff163373ffffffffffffffffffffffffffffffffffffffff161415610c30576040517f08c379a0000000000000000000000000000000000000000000000000000000008152600401610c2790614c05565b60405180910390fd5b846000600b60008381526020019081526020016000206040518060c0016040529081600082015481526020016001820160009054906101000a900473ffffffffffffffffffffffffffffffffffffffff1673ffffffffffffffffffffffffffffffffffffffff1673ffffffffffffffffffffffffffffffffffffffff16815260200160028201548152602001600382015481526020016004820160009054906101000a900460ff161515151581526020016004820160019054906101000a900460ff16151515158152505090508060600151421115610d44576040517f08c379a0000000000000000000000000000000000000000000000000000000008152600401610d3b90614c71565b60405180910390fd5b6000600b60008981526020019081526020016000206040518060c0016040529081600082015481526020016001820160009054906101000a900473ffffffffffffffffffffffffffffffffffffffff1673ffffffffffffffffffffffffffffffffffffffff1673ffffffffffffffffffffffffffffffffffffffff16815260200160028201548152602001600382015481526020016004820160009054906101000a900460ff161515151581526020016004820160019054906101000a900460ff161515151581525050905080604001518711610e2057600080fd5b86600c60008a815260200190815260200160002060003373ffffffffffffffffffffffffffffffffffffffff1673ffffffffffffffffffffffffffffffffffffffff1681526020019081526020016000208190555033816020019073ffffffffffffffffffffffffffffffffffffffff16908173ffffffffffffffffffffffffffffffffffffffff16815250508681604001818152505080600b60008a81526020019081526020016000206000820151816000015560208201518160010160006101000a81548173ffffffffffffffffffffffffffffffffffffffff021916908373ffffffffffffffffffffffffffffffffffffffff160217905550604082015181600201556060820151816003015560808201518160040160006101000a81548160ff02191690831515021790555060a08201518160040160016101000a81548160ff02191690831515021790555090505060019550505050505092915050565b610f93610f8d61348b565b8261354c565b610fd2576040517f08c379a0000000000000000000000000000000000000000000000000000000008152600401610fc990614d03565b60405180910390fd5b610fdd83838361362a565b505050565b600c602052816000526040600020602052806000526040600020600091509150505481565b6000816110138161341f565b611052576040517f08c379a000000000000000000000000000000000000000000000000000000000815260040161104990614b99565b60405180910390fd5b8261105c816113ba565b73ffffffffffffffffffffffffffffffffffffffff163373ffffffffffffffffffffffffffffffffffffffff1614156110ca576040517f08c379a00000000000000000000000000000000000000000000000000000000081526004016110c190614c05565b60405180910390fd5b6000600b60008681526020019081526020016000206040518060c0016040529081600082015481526020016001820160009054906101000a900473ffffffffffffffffffffffffffffffffffffffff1673ffffffffffffffffffffffffffffffffffffffff1673ffffffffffffffffffffffffffffffffffffffff16815260200160028201548152602001600382015481526020016004820160009054906101000a900460ff161515151581526020016004820160019054906101000a900460ff161515151581525050905080608001516111a457600080fd5b806020015173ffffffffffffffffffffffffffffffffffffffff163373ffffffffffffffffffffffffffffffffffffffff1614156111e157600080fd5b600080339150600c600088815260200190815260200160002060008373ffffffffffffffffffffffffffffffffffffffff1673ffffffffffffffffffffffffffffffffffffffff168152602001908152602001600020549050600081141561124857600080fd5b6000600c600089815260200190815260200160002060008473ffffffffffffffffffffffffffffffffffffffff1673ffffffffffffffffffffffffffffffffffffffff168152602001908152602001600020819055503373ffffffffffffffffffffffffffffffffffffffff166108fc829081150290604051600060405180830381858888f193505050506113385780600c600089815260200190815260200160002060008473ffffffffffffffffffffffffffffffffffffffff1673ffffffffffffffffffffffffffffffffffffffff1681526020019081526020016000208190555060009550505050611340565b600195505050505b5050919050565b61136283838360405180602001604052806000815250612186565b505050565b6000806113738361189b565b905080915050919050565b600e818051602081018201805184825260208301602085012081835280955050505050506000915054906101000a900460ff1681565b60095481565b6000806002600084815260200190815260200160002060009054906101000a900473ffffffffffffffffffffffffffffffffffffffff169050600073ffffffffffffffffffffffffffffffffffffffff168173ffffffffffffffffffffffffffffffffffffffff161415611463576040517f08c379a000000000000000000000000000000000000000000000000000000000815260040161145a90614d95565b60405180910390fd5b80915050919050565b600073ffffffffffffffffffffffffffffffffffffffff163373ffffffffffffffffffffffffffffffffffffffff1614156114dc576040517f08c379a00000000000000000000000000000000000000000000000000000000081526004016114d390614e27565b60405180910390fd5b600960008154809291906114ef90614e76565b91905055506114ff60095461341f565b1561150957600080fd5b600e826040516115199190614efb565b908152602001604051809103902060009054906101000a900460ff161561153f57600080fd5b600d8360405161154f9190614efb565b908152602001604051809103902060009054906101000a900460ff161561157557600080fd5b61158133600954613886565b61158d600954836138a4565b6001600e8360405161159f9190614efb565b908152602001604051809103902060006101000a81548160ff0219169083151502179055506001600d846040516115d69190614efb565b908152602001604051809103902060006101000a81548160ff021916908315150217905550600060405180610120016040528060095481526020018581526020018481526020013373ffffffffffffffffffffffffffffffffffffffff1681526020013373ffffffffffffffffffffffffffffffffffffffff168152602001600073ffffffffffffffffffffffffffffffffffffffff1681526020018381526020016000815260200160001515815250905080600a600060095481526020019081526020016000206000820151816000015560208201518160010190805190602001906116c4929190613f6b565b5060408201518160020190805190602001906116e1929190613f6b565b5060608201518160030160006101000a81548173ffffffffffffffffffffffffffffffffffffffff021916908373ffffffffffffffffffffffffffffffffffffffff16021790555060808201518160040160006101000a81548173ffffffffffffffffffffffffffffffffffffffff021916908373ffffffffffffffffffffffffffffffffffffffff16021790555060a08201518160050160006101000a81548173ffffffffffffffffffffffffffffffffffffffff021916908373ffffffffffffffffffffffffffffffffffffffff16021790555060c0820151816006015560e082015181600701556101008201518160080160006101000a81548160ff02191690831515021790555090505050505050565b6060600061180283612a23565b905080915050919050565b6008805461181a90614965565b80601f016020809104026020016040519081016040528092919081815260200182805461184690614965565b80156118935780601f1061186857610100808354040283529160200191611893565b820191906000526020600020905b81548152906001019060200180831161187657829003601f168201915b505050505081565b60008073ffffffffffffffffffffffffffffffffffffffff168273ffffffffffffffffffffffffffffffffffffffff16141561190c576040517f08c379a000000000000000000000000000000000000000000000000000000000815260040161190390614f84565b60405180910390fd5b600360008373ffffffffffffffffffffffffffffffffffffffff1673ffffffffffffffffffffffffffffffffffffffff168152602001908152602001600020549050919050565b60606001805461196290614965565b80601f016020809104026020016040519081016040528092919081815260200182805461198e90614965565b80156119db5780601f106119b0576101008083540402835291602001916119db565b820191906000526020600020905b8154815290600101906020018083116119be57829003601f168201915b5050505050905090565b6000836119f18161341f565b611a30576040517f08c379a0000000000000000000000000000000000000000000000000000000008152600401611a2790614b99565b60405180910390fd5b84611a3a816113ba565b73ffffffffffffffffffffffffffffffffffffffff163373ffffffffffffffffffffffffffffffffffffffff1614611aa7576040517f08c379a0000000000000000000000000000000000000000000000000000000008152600401611a9e90615016565b60405180910390fd5b6000600a60008881526020019081526020016000206040518061012001604052908160008201548152602001600182018054611ae290614965565b80601f0160208091040260200160405190810160405280929190818152602001828054611b0e90614965565b8015611b5b5780601f10611b3057610100808354040283529160200191611b5b565b820191906000526020600020905b815481529060010190602001808311611b3e57829003601f168201915b50505050508152602001600282018054611b7490614965565b80601f0160208091040260200160405190810160405280929190818152602001828054611ba090614965565b8015611bed5780601f10611bc257610100808354040283529160200191611bed565b820191906000526020600020905b815481529060010190602001808311611bd057829003601f168201915b505050505081526020016003820160009054906101000a900473ffffffffffffffffffffffffffffffffffffffff1673ffffffffffffffffffffffffffffffffffffffff1673ffffffffffffffffffffffffffffffffffffffff1681526020016004820160009054906101000a900473ffffffffffffffffffffffffffffffffffffffff1673ffffffffffffffffffffffffffffffffffffffff1673ffffffffffffffffffffffffffffffffffffffff1681526020016005820160009054906101000a900473ffffffffffffffffffffffffffffffffffffffff1673ffffffffffffffffffffffffffffffffffffffff1673ffffffffffffffffffffffffffffffffffffffff16815260200160068201548152602001600782015481526020016008820160009054906101000a900460ff161515151581525050905060018161010001901515908115158152505060006040518060c001604052808881526020013373ffffffffffffffffffffffffffffffffffffffff16815260200188815260200187815260200160001515815260200160001515815250905081600a60008a8152602001908152602001600020600082015181600001556020820151816001019080519060200190611dc2929190613f6b565b506040820151816002019080519060200190611ddf929190613f6b565b5060608201518160030160006101000a81548173ffffffffffffffffffffffffffffffffffffffff021916908373ffffffffffffffffffffffffffffffffffffffff16021790555060808201518160040160006101000a81548173ffffffffffffffffffffffffffffffffffffffff021916908373ffffffffffffffffffffffffffffffffffffffff16021790555060a08201518160050160006101000a81548173ffffffffffffffffffffffffffffffffffffffff021916908373ffffffffffffffffffffffffffffffffffffffff16021790555060c0820151816006015560e082015181600701556101008201518160080160006101000a81548160ff02191690831515021790555090505080600b60008a81526020019081526020016000206000820151816000015560208201518160010160006101000a81548173ffffffffffffffffffffffffffffffffffffffff021916908373ffffffffffffffffffffffffffffffffffffffff160217905550604082015181600201556060820151816003015560808201518160040160006101000a81548160ff02191690831515021790555060a08201518160040160016101000a81548160ff02191690831515021790555090505060019450505050509392505050565b611fc061348b565b73ffffffffffffffffffffffffffffffffffffffff168273ffffffffffffffffffffffffffffffffffffffff16141561202e576040517f08c379a000000000000000000000000000000000000000000000000000000000815260040161202590615082565b60405180910390fd5b806005600061203b61348b565b73ffffffffffffffffffffffffffffffffffffffff1673ffffffffffffffffffffffffffffffffffffffff16815260200190815260200160002060008473ffffffffffffffffffffffffffffffffffffffff1673ffffffffffffffffffffffffffffffffffffffff16815260200190815260200160002060006101000a81548160ff0219169083151502179055508173ffffffffffffffffffffffffffffffffffffffff166120e861348b565b73ffffffffffffffffffffffffffffffffffffffff167f17307eab39ab6107e8899845ad3d59bd9653f200f220920489ca2b5937696c318360405161212d91906140c2565b60405180910390a35050565b600d818051602081018201805184825260208301602085012081835280955050505050506000915054906101000a900460ff1681565b60008061217b836113ba565b905080915050919050565b61219761219161348b565b8361354c565b6121d6576040517f08c379a00000000000000000000000000000000000000000000000000000000081526004016121cd90614d03565b60405180910390fd5b6121e284848484613918565b50505050565b6000816121f48161341f565b612233576040517f08c379a000000000000000000000000000000000000000000000000000000000815260040161222a90614b99565b60405180910390fd5b6000600b60008581526020019081526020016000206040518060c0016040529081600082015481526020016001820160009054906101000a900473ffffffffffffffffffffffffffffffffffffffff1673ffffffffffffffffffffffffffffffffffffffff1673ffffffffffffffffffffffffffffffffffffffff16815260200160028201548152602001600382015481526020016004820160009054906101000a900460ff161515151581526020016004820160019054906101000a900460ff1615151515815250509050806060015142101561231057600080fd5b6000600a6000868152602001908152602001600020604051806101200160405290816000820154815260200160018201805461234b90614965565b80601f016020809104026020016040519081016040528092919081815260200182805461237790614965565b80156123c45780601f10612399576101008083540402835291602001916123c4565b820191906000526020600020905b8154815290600101906020018083116123a757829003601f168201915b505050505081526020016002820180546123dd90614965565b80601f016020809104026020016040519081016040528092919081815260200182805461240990614965565b80156124565780601f1061242b57610100808354040283529160200191612456565b820191906000526020600020905b81548152906001019060200180831161243957829003601f168201915b505050505081526020016003820160009054906101000a900473ffffffffffffffffffffffffffffffffffffffff1673ffffffffffffffffffffffffffffffffffffffff1673ffffffffffffffffffffffffffffffffffffffff1681526020016004820160009054906101000a900473ffffffffffffffffffffffffffffffffffffffff1673ffffffffffffffffffffffffffffffffffffffff1673ffffffffffffffffffffffffffffffffffffffff1681526020016005820160009054906101000a900473ffffffffffffffffffffffffffffffffffffffff1673ffffffffffffffffffffffffffffffffffffffff1673ffffffffffffffffffffffffffffffffffffffff16815260200160068201548152602001600782015481526020016008820160009054906101000a900460ff1615151515815250509050600081610100019015159081151581525050600182608001901515908115158152505080600a60008781526020019081526020016000206000820151816000015560208201518160010190805190602001906125ef929190613f6b565b50604082015181600201908051906020019061260c929190613f6b565b5060608201518160030160006101000a81548173ffffffffffffffffffffffffffffffffffffffff021916908373ffffffffffffffffffffffffffffffffffffffff16021790555060808201518160040160006101000a81548173ffffffffffffffffffffffffffffffffffffffff021916908373ffffffffffffffffffffffffffffffffffffffff16021790555060a08201518160050160006101000a81548173ffffffffffffffffffffffffffffffffffffffff021916908373ffffffffffffffffffffffffffffffffffffffff16021790555060c0820151816006015560e082015181600701556101008201518160080160006101000a81548160ff02191690831515021790555090505081600b60008781526020019081526020016000206000820151816000015560208201518160010160006101000a81548173ffffffffffffffffffffffffffffffffffffffff021916908373ffffffffffffffffffffffffffffffffffffffff160217905550604082015181600201556060820151816003015560808201518160040160006101000a81548160ff02191690831515021790555060a08201518160040160016101000a81548160ff02191690831515021790555090505060019350505050919050565b600a60205280600052604060002060009150905080600001549080600101805461280b90614965565b80601f016020809104026020016040519081016040528092919081815260200182805461283790614965565b80156128845780601f1061285957610100808354040283529160200191612884565b820191906000526020600020905b81548152906001019060200180831161286757829003601f168201915b50505050509080600201805461289990614965565b80601f01602080910402602001604051908101604052809291908181526020018280546128c590614965565b80156129125780601f106128e757610100808354040283529160200191612912565b820191906000526020600020905b8154815290600101906020018083116128f557829003601f168201915b5050505050908060030160009054906101000a900473ffffffffffffffffffffffffffffffffffffffff16908060040160009054906101000a900473ffffffffffffffffffffffffffffffffffffffff16908060050160009054906101000a900473ffffffffffffffffffffffffffffffffffffffff16908060060154908060070154908060080160009054906101000a900460ff16905089565b600b6020528060005260406000206000915090508060000154908060010160009054906101000a900473ffffffffffffffffffffffffffffffffffffffff16908060020154908060030154908060040160009054906101000a900460ff16908060040160019054906101000a900460ff16905086565b6060612a2e8261341f565b612a6d576040517f08c379a0000000000000000000000000000000000000000000000000000000008152600401612a6490615114565b60405180910390fd5b6000600660008481526020019081526020016000208054612a8d90614965565b80601f0160208091040260200160405190810160405280929190818152602001828054612ab990614965565b8015612b065780601f10612adb57610100808354040283529160200191612b06565b820191906000526020600020905b815481529060010190602001808311612ae957829003601f168201915b505050505090506000612b17613974565b9050600081511415612b2d578192505050612b70565b600082511115612b62578082604051602001612b4a929190615134565b60405160208183030381529060405292505050612b70565b612b6b8461398b565b925050505b919050565b60008060095490508091505090565b60078054612b9190614965565b80601f0160208091040260200160405190810160405280929190818152602001828054612bbd90614965565b8015612c0a5780601f10612bdf57610100808354040283529160200191612c0a565b820191906000526020600020905b815481529060010190602001808311612bed57829003601f168201915b505050505081565b6000600560008473ffffffffffffffffffffffffffffffffffffffff1673ffffffffffffffffffffffffffffffffffffffff16815260200190815260200160002060008373ffffffffffffffffffffffffffffffffffffffff1673ffffffffffffffffffffffffffffffffffffffff16815260200190815260200160002060009054906101000a900460ff16905092915050565b600081612cb28161341f565b612cf1576040517f08c379a0000000000000000000000000000000000000000000000000000000008152600401612ce890614b99565b60405180910390fd5b600073ffffffffffffffffffffffffffffffffffffffff163373ffffffffffffffffffffffffffffffffffffffff161415612d61576040517f08c379a0000000000000000000000000000000000000000000000000000000008152600401612d5890614e27565b60405180910390fd5b6000600b60008581526020019081526020016000206040518060c0016040529081600082015481526020016001820160009054906101000a900473ffffffffffffffffffffffffffffffffffffffff1673ffffffffffffffffffffffffffffffffffffffff1673ffffffffffffffffffffffffffffffffffffffff16815260200160028201548152602001600382015481526020016004820160009054906101000a900460ff161515151581526020016004820160019054906101000a900460ff16151515158152505090508060800151612e3b57600080fd5b8060a0015115612e4a57600080fd5b806020015173ffffffffffffffffffffffffffffffffffffffff163373ffffffffffffffffffffffffffffffffffffffff1614612e8657600080fd5b6000612e91856113ba565b9050600073ffffffffffffffffffffffffffffffffffffffff168173ffffffffffffffffffffffffffffffffffffffff161415612ecd57600080fd5b6000600a60008781526020019081526020016000206040518061012001604052908160008201548152602001600182018054612f0890614965565b80601f0160208091040260200160405190810160405280929190818152602001828054612f3490614965565b8015612f815780601f10612f5657610100808354040283529160200191612f81565b820191906000526020600020905b815481529060010190602001808311612f6457829003601f168201915b50505050508152602001600282018054612f9a90614965565b80601f0160208091040260200160405190810160405280929190818152602001828054612fc690614965565b80156130135780601f10612fe857610100808354040283529160200191613013565b820191906000526020600020905b815481529060010190602001808311612ff657829003601f168201915b505050505081526020016003820160009054906101000a900473ffffffffffffffffffffffffffffffffffffffff1673ffffffffffffffffffffffffffffffffffffffff1673ffffffffffffffffffffffffffffffffffffffff1681526020016004820160009054906101000a900473ffffffffffffffffffffffffffffffffffffffff1673ffffffffffffffffffffffffffffffffffffffff1673ffffffffffffffffffffffffffffffffffffffff1681526020016005820160009054906101000a900473ffffffffffffffffffffffffffffffffffffffff1673ffffffffffffffffffffffffffffffffffffffff1673ffffffffffffffffffffffffffffffffffffffff16815260200160068201548152602001600782015481526020016008820160009054906101000a900460ff161515151581525050905061315a82338861362a565b6000816080015190508073ffffffffffffffffffffffffffffffffffffffff166108fc349081150290604051600060405180830381858888f193505050501580156131a9573d6000803e3d6000fd5b5081608001518260a0019073ffffffffffffffffffffffffffffffffffffffff16908173ffffffffffffffffffffffffffffffffffffffff168152505033826080019073ffffffffffffffffffffffffffffffffffffffff16908173ffffffffffffffffffffffffffffffffffffffff168152505083604001518260c00181815250508160e001805180919061323e90614e76565b8152505081600a600089815260200190815260200160002060008201518160000155602082015181600101908051906020019061327c929190613f6b565b506040820151816002019080519060200190613299929190613f6b565b5060608201518160030160006101000a81548173ffffffffffffffffffffffffffffffffffffffff021916908373ffffffffffffffffffffffffffffffffffffffff16021790555060808201518160040160006101000a81548173ffffffffffffffffffffffffffffffffffffffff021916908373ffffffffffffffffffffffffffffffffffffffff16021790555060a08201518160050160006101000a81548173ffffffffffffffffffffffffffffffffffffffff021916908373ffffffffffffffffffffffffffffffffffffffff16021790555060c0820151816006015560e082015181600701556101008201518160080160006101000a81548160ff021916908315150217905550905050600195505050505050919050565b60007f01ffc9a7000000000000000000000000000000000000000000000000000000007bffffffffffffffffffffffffffffffffffffffffffffffffffffffff1916827bffffffffffffffffffffffffffffffffffffffffffffffffffffffff1916149050919050565b60008073ffffffffffffffffffffffffffffffffffffffff166002600084815260200190815260200160002060009054906101000a900473ffffffffffffffffffffffffffffffffffffffff1673ffffffffffffffffffffffffffffffffffffffff1614159050919050565b600033905090565b816004600083815260200190815260200160002060006101000a81548173ffffffffffffffffffffffffffffffffffffffff021916908373ffffffffffffffffffffffffffffffffffffffff160217905550808273ffffffffffffffffffffffffffffffffffffffff16613506836113ba565b73ffffffffffffffffffffffffffffffffffffffff167f8c5be1e5ebec7d5bd14f71427d1e84f3dd0314c0f7b2291e5b200ac8c7c3b92560405160405180910390a45050565b60006135578261341f565b613596576040517f08c379a000000000000000000000000000000000000000000000000000000000815260040161358d906151ca565b60405180910390fd5b60006135a1836113ba565b90508073ffffffffffffffffffffffffffffffffffffffff168473ffffffffffffffffffffffffffffffffffffffff16148061361057508373ffffffffffffffffffffffffffffffffffffffff166135f8846109d0565b73ffffffffffffffffffffffffffffffffffffffff16145b8061362157506136208185612c12565b5b91505092915050565b8273ffffffffffffffffffffffffffffffffffffffff1661364a826113ba565b73ffffffffffffffffffffffffffffffffffffffff16146136a0576040517f08c379a00000000000000000000000000000000000000000000000000000000081526004016136979061525c565b60405180910390fd5b600073ffffffffffffffffffffffffffffffffffffffff168273ffffffffffffffffffffffffffffffffffffffff161415613710576040517f08c379a0000000000000000000000000000000000000000000000000000000008152600401613707906152ee565b60405180910390fd5b61371b838383613a32565b613726600082613493565b6001600360008573ffffffffffffffffffffffffffffffffffffffff1673ffffffffffffffffffffffffffffffffffffffff1681526020019081526020016000206000828254613776919061530e565b925050819055506001600360008473ffffffffffffffffffffffffffffffffffffffff1673ffffffffffffffffffffffffffffffffffffffff16815260200190815260200160002060008282546137cd9190615342565b92505081905550816002600083815260200190815260200160002060006101000a81548173ffffffffffffffffffffffffffffffffffffffff021916908373ffffffffffffffffffffffffffffffffffffffff160217905550808273ffffffffffffffffffffffffffffffffffffffff168473ffffffffffffffffffffffffffffffffffffffff167fddf252ad1be2c89b69c2b068fc378daa952ba7f163c4a11628f55a4df523b3ef60405160405180910390a4505050565b6138a0828260405180602001604052806000815250613a37565b5050565b6138ad8261341f565b6138ec576040517f08c379a00000000000000000000000000000000000000000000000000000000081526004016138e39061540a565b60405180910390fd5b80600660008481526020019081526020016000209080519060200190613913929190613f6b565b505050565b61392384848461362a565b61392f84848484613a92565b61396e576040517f08c379a00000000000000000000000000000000000000000000000000000000081526004016139659061549c565b60405180910390fd5b50505050565b606060405180602001604052806000815250905090565b60606139968261341f565b6139d5576040517f08c379a00000000000000000000000000000000000000000000000000000000081526004016139cc9061552e565b60405180910390fd5b60006139df613974565b905060008151116139ff5760405180602001604052806000815250613a2a565b80613a0984613c29565b604051602001613a1a929190615134565b6040516020818303038152906040525b915050919050565b505050565b613a418383613d8a565b613a4e6000848484613a92565b613a8d576040517f08c379a0000000000000000000000000000000000000000000000000000000008152600401613a849061549c565b60405180910390fd5b505050565b6000613ab38473ffffffffffffffffffffffffffffffffffffffff16613f58565b15613c1c578373ffffffffffffffffffffffffffffffffffffffff1663150b7a02613adc61348b565b8786866040518563ffffffff1660e01b8152600401613afe94939291906155a3565b602060405180830381600087803b158015613b1857600080fd5b505af1925050508015613b4957506040513d601f19601f82011682018060405250810190613b469190615604565b60015b613bcc573d8060008114613b79576040519150601f19603f3d011682016040523d82523d6000602084013e613b7e565b606091505b50600081511415613bc4576040517f08c379a0000000000000000000000000000000000000000000000000000000008152600401613bbb9061549c565b60405180910390fd5b805181602001fd5b63150b7a0260e01b7bffffffffffffffffffffffffffffffffffffffffffffffffffffffff1916817bffffffffffffffffffffffffffffffffffffffffffffffffffffffff191614915050613c21565b600190505b949350505050565b60606000821415613c71576040518060400160405280600181526020017f30000000000000000000000000000000000000000000000000000000000000008152509050613d85565b600082905060005b60008214613ca3578080613c8c90614e76565b915050600a82613c9c9190615660565b9150613c79565b60008167ffffffffffffffff811115613cbf57613cbe6143f7565b5b6040519080825280601f01601f191660200182016040528015613cf15781602001600182028036833780820191505090505b5090505b60008514613d7e57600182613d0a919061530e565b9150600a85613d199190615691565b6030613d259190615342565b60f81b818381518110613d3b57613d3a6156c2565b5b60200101907effffffffffffffffffffffffffffffffffffffffffffffffffffffffffffff1916908160001a905350600a85613d779190615660565b9450613cf5565b8093505050505b919050565b600073ffffffffffffffffffffffffffffffffffffffff168273ffffffffffffffffffffffffffffffffffffffff161415613dfa576040517f08c379a0000000000000000000000000000000000000000000000000000000008152600401613df19061573d565b60405180910390fd5b613e038161341f565b15613e43576040517f08c379a0000000000000000000000000000000000000000000000000000000008152600401613e3a906157a9565b60405180910390fd5b613e4f60008383613a32565b6001600360008473ffffffffffffffffffffffffffffffffffffffff1673ffffffffffffffffffffffffffffffffffffffff1681526020019081526020016000206000828254613e9f9190615342565b92505081905550816002600083815260200190815260200160002060006101000a81548173ffffffffffffffffffffffffffffffffffffffff021916908373ffffffffffffffffffffffffffffffffffffffff160217905550808273ffffffffffffffffffffffffffffffffffffffff16600073ffffffffffffffffffffffffffffffffffffffff167fddf252ad1be2c89b69c2b068fc378daa952ba7f163c4a11628f55a4df523b3ef60405160405180910390a45050565b600080823b905060008111915050919050565b828054613f7790614965565b90600052602060002090601f016020900481019282613f995760008555613fe0565b82601f10613fb257805160ff1916838001178555613fe0565b82800160010185558215613fe0579182015b82811115613fdf578251825591602001919060010190613fc4565b5b509050613fed9190613ff1565b5090565b5b8082111561400a576000816000905550600101613ff2565b5090565b6000604051905090565b600080fd5b600080fd5b60007fffffffff0000000000000000000000000000000000000000000000000000000082169050919050565b61405781614022565b811461406257600080fd5b50565b6000813590506140748161404e565b92915050565b6000602082840312156140905761408f614018565b5b600061409e84828501614065565b91505092915050565b60008115159050919050565b6140bc816140a7565b82525050565b60006020820190506140d760008301846140b3565b92915050565b600081519050919050565b600082825260208201905092915050565b60005b838110156141175780820151818401526020810190506140fc565b83811115614126576000848401525b50505050565b6000601f19601f8301169050919050565b6000614148826140dd565b61415281856140e8565b93506141628185602086016140f9565b61416b8161412c565b840191505092915050565b60006020820190508181036000830152614190818461413d565b905092915050565b6000819050919050565b6141ab81614198565b81146141b657600080fd5b50565b6000813590506141c8816141a2565b92915050565b6000602082840312156141e4576141e3614018565b5b60006141f2848285016141b9565b91505092915050565b600073ffffffffffffffffffffffffffffffffffffffff82169050919050565b6000614226826141fb565b9050919050565b6142368161421b565b82525050565b6000602082019050614251600083018461422d565b92915050565b6142608161421b565b811461426b57600080fd5b50565b60008135905061427d81614257565b92915050565b6000806040838503121561429a57614299614018565b5b60006142a88582860161426e565b92505060206142b9858286016141b9565b9150509250929050565b600080604083850312156142da576142d9614018565b5b60006142e8858286016141b9565b92505060206142f9858286016141b9565b9150509250929050565b60008060006060848603121561431c5761431b614018565b5b600061432a8682870161426e565b935050602061433b8682870161426e565b925050604061434c868287016141b9565b9150509250925092565b6000806040838503121561436d5761436c614018565b5b600061437b858286016141b9565b925050602061438c8582860161426e565b9150509250929050565b61439f81614198565b82525050565b60006020820190506143ba6000830184614396565b92915050565b6000602082840312156143d6576143d5614018565b5b60006143e48482850161426e565b91505092915050565b600080fd5b600080fd5b7f4e487b7100000000000000000000000000000000000000000000000000000000600052604160045260246000fd5b61442f8261412c565b810181811067ffffffffffffffff8211171561444e5761444d6143f7565b5b80604052505050565b600061446161400e565b905061446d8282614426565b919050565b600067ffffffffffffffff82111561448d5761448c6143f7565b5b6144968261412c565b9050602081019050919050565b82818337600083830152505050565b60006144c56144c084614472565b614457565b9050828152602081018484840111156144e1576144e06143f2565b5b6144ec8482856144a3565b509392505050565b600082601f830112614509576145086143ed565b5b81356145198482602086016144b2565b91505092915050565b60006020828403121561453857614537614018565b5b600082013567ffffffffffffffff8111156145565761455561401d565b5b614562848285016144f4565b91505092915050565b60008060006060848603121561458457614583614018565b5b600084013567ffffffffffffffff8111156145a2576145a161401d565b5b6145ae868287016144f4565b935050602084013567ffffffffffffffff8111156145cf576145ce61401d565b5b6145db868287016144f4565b92505060406145ec868287016141b9565b9150509250925092565b60008060006060848603121561460f5761460e614018565b5b600061461d868287016141b9565b935050602061462e868287016141b9565b925050604061463f868287016141b9565b9150509250925092565b614652816140a7565b811461465d57600080fd5b50565b60008135905061466f81614649565b92915050565b6000806040838503121561468c5761468b614018565b5b600061469a8582860161426e565b92505060206146ab85828601614660565b9150509250929050565b600067ffffffffffffffff8211156146d0576146cf6143f7565b5b6146d98261412c565b9050602081019050919050565b60006146f96146f4846146b5565b614457565b905082815260208101848484011115614715576147146143f2565b5b6147208482856144a3565b509392505050565b600082601f83011261473d5761473c6143ed565b5b813561474d8482602086016146e6565b91505092915050565b600080600080608085870312156147705761476f614018565b5b600061477e8782880161426e565b945050602061478f8782880161426e565b93505060406147a0878288016141b9565b925050606085013567ffffffffffffffff8111156147c1576147c061401d565b5b6147cd87828801614728565b91505092959194509250565b60006147e4826141fb565b9050919050565b6147f4816147d9565b82525050565b600061012082019050614810600083018c614396565b8181036020830152614822818b61413d565b90508181036040830152614836818a61413d565b905061484560608301896147eb565b61485260808301886147eb565b61485f60a08301876147eb565b61486c60c0830186614396565b61487960e0830185614396565b6148876101008301846140b3565b9a9950505050505050505050565b600060c0820190506148aa6000830189614396565b6148b760208301886147eb565b6148c46040830187614396565b6148d16060830186614396565b6148de60808301856140b3565b6148eb60a08301846140b3565b979650505050505050565b6000806040838503121561490d5761490c614018565b5b600061491b8582860161426e565b925050602061492c8582860161426e565b9150509250929050565b7f4e487b7100000000000000000000000000000000000000000000000000000000600052602260045260246000fd5b6000600282049050600182168061497d57607f821691505b6020821081141561499157614990614936565b5b50919050565b7f4552433732313a20617070726f76656420717565727920666f72206e6f6e657860008201527f697374656e7420746f6b656e0000000000000000000000000000000000000000602082015250565b60006149f3602c836140e8565b91506149fe82614997565b604082019050919050565b60006020820190508181036000830152614a22816149e6565b9050919050565b7f4552433732313a20617070726f76616c20746f2063757272656e74206f776e6560008201527f7200000000000000000000000000000000000000000000000000000000000000602082015250565b6000614a856021836140e8565b9150614a9082614a29565b604082019050919050565b60006020820190508181036000830152614ab481614a78565b9050919050565b7f4552433732313a20617070726f76652063616c6c6572206973206e6f74206f7760008201527f6e6572206e6f7220617070726f76656420666f7220616c6c0000000000000000602082015250565b6000614b176038836140e8565b9150614b2282614abb565b604082019050919050565b60006020820190508181036000830152614b4681614b0a565b9050919050565b7f546f6b656e20494420646f6573206e6f742065786973742e0000000000000000600082015250565b6000614b836018836140e8565b9150614b8e82614b4d565b602082019050919050565b60006020820190508181036000830152614bb281614b76565b9050919050565b7f4f776e65722063616e6e6f742063616c6c20746869732066756e6374696f6e2e600082015250565b6000614bef6020836140e8565b9150614bfa82614bb9565b602082019050919050565b60006020820190508181036000830152614c1e81614be2565b9050919050565b7f41756374696f6e20616c726561647920656e6465642e00000000000000000000600082015250565b6000614c5b6016836140e8565b9150614c6682614c25565b602082019050919050565b60006020820190508181036000830152614c8a81614c4e565b9050919050565b7f4552433732313a207472616e736665722063616c6c6572206973206e6f74206f60008201527f776e6572206e6f7220617070726f766564000000000000000000000000000000602082015250565b6000614ced6031836140e8565b9150614cf882614c91565b604082019050919050565b60006020820190508181036000830152614d1c81614ce0565b9050919050565b7f4552433732313a206f776e657220717565727920666f72206e6f6e657869737460008201527f656e7420746f6b656e0000000000000000000000000000000000000000000000602082015250565b6000614d7f6029836140e8565b9150614d8a82614d23565b604082019050919050565b60006020820190508181036000830152614dae81614d72565b9050919050565b7f546865206675636e74696f6e2063616c6c6572206973207a65726f206164647260008201527f657373206163636f756e742e0000000000000000000000000000000000000000602082015250565b6000614e11602c836140e8565b9150614e1c82614db5565b604082019050919050565b60006020820190508181036000830152614e4081614e04565b9050919050565b7f4e487b7100000000000000000000000000000000000000000000000000000000600052601160045260246000fd5b6000614e8182614198565b91507fffffffffffffffffffffffffffffffffffffffffffffffffffffffffffffffff821415614eb457614eb3614e47565b5b600182019050919050565b600081905092915050565b6000614ed5826140dd565b614edf8185614ebf565b9350614eef8185602086016140f9565b80840191505092915050565b6000614f078284614eca565b915081905092915050565b7f4552433732313a2062616c616e636520717565727920666f7220746865207a6560008201527f726f206164647265737300000000000000000000000000000000000000000000602082015250565b6000614f6e602a836140e8565b9150614f7982614f12565b604082019050919050565b60006020820190508181036000830152614f9d81614f61565b9050919050565b7f4f6e6c79206f776e65722063616e2063616c6c20746869732066756e6374696f60008201527f6e2e000000000000000000000000000000000000000000000000000000000000602082015250565b60006150006022836140e8565b915061500b82614fa4565b604082019050919050565b6000602082019050818103600083015261502f81614ff3565b9050919050565b7f4552433732313a20617070726f766520746f2063616c6c657200000000000000600082015250565b600061506c6019836140e8565b915061507782615036565b602082019050919050565b6000602082019050818103600083015261509b8161505f565b9050919050565b7f45524337323155524953746f726167653a2055524920717565727920666f722060008201527f6e6f6e6578697374656e7420746f6b656e000000000000000000000000000000602082015250565b60006150fe6031836140e8565b9150615109826150a2565b604082019050919050565b6000602082019050818103600083015261512d816150f1565b9050919050565b60006151408285614eca565b915061514c8284614eca565b91508190509392505050565b7f4552433732313a206f70657261746f7220717565727920666f72206e6f6e657860008201527f697374656e7420746f6b656e0000000000000000000000000000000000000000602082015250565b60006151b4602c836140e8565b91506151bf82615158565b604082019050919050565b600060208201905081810360008301526151e3816151a7565b9050919050565b7f4552433732313a207472616e73666572206f6620746f6b656e2074686174206960008201527f73206e6f74206f776e0000000000000000000000000000000000000000000000602082015250565b60006152466029836140e8565b9150615251826151ea565b604082019050919050565b6000602082019050818103600083015261527581615239565b9050919050565b7f4552433732313a207472616e7366657220746f20746865207a65726f2061646460008201527f7265737300000000000000000000000000000000000000000000000000000000602082015250565b60006152d86024836140e8565b91506152e38261527c565b604082019050919050565b60006020820190508181036000830152615307816152cb565b9050919050565b600061531982614198565b915061532483614198565b92508282101561533757615336614e47565b5b828203905092915050565b600061534d82614198565b915061535883614198565b9250827fffffffffffffffffffffffffffffffffffffffffffffffffffffffffffffffff0382111561538d5761538c614e47565b5b828201905092915050565b7f45524337323155524953746f726167653a2055524920736574206f66206e6f6e60008201527f6578697374656e7420746f6b656e000000000000000000000000000000000000602082015250565b60006153f4602e836140e8565b91506153ff82615398565b604082019050919050565b60006020820190508181036000830152615423816153e7565b9050919050565b7f4552433732313a207472616e7366657220746f206e6f6e20455243373231526560008201527f63656976657220696d706c656d656e7465720000000000000000000000000000602082015250565b60006154866032836140e8565b91506154918261542a565b604082019050919050565b600060208201905081810360008301526154b581615479565b9050919050565b7f4552433732314d657461646174613a2055524920717565727920666f72206e6f60008201527f6e6578697374656e7420746f6b656e0000000000000000000000000000000000602082015250565b6000615518602f836140e8565b9150615523826154bc565b604082019050919050565b600060208201905081810360008301526155478161550b565b9050919050565b600081519050919050565b600082825260208201905092915050565b60006155758261554e565b61557f8185615559565b935061558f8185602086016140f9565b6155988161412c565b840191505092915050565b60006080820190506155b8600083018761422d565b6155c5602083018661422d565b6155d26040830185614396565b81810360608301526155e4818461556a565b905095945050505050565b6000815190506155fe8161404e565b92915050565b60006020828403121561561a57615619614018565b5b6000615628848285016155ef565b91505092915050565b7f4e487b7100000000000000000000000000000000000000000000000000000000600052601260045260246000fd5b600061566b82614198565b915061567683614198565b92508261568657615685615631565b5b828204905092915050565b600061569c82614198565b91506156a783614198565b9250826156b7576156b6615631565b5b828206905092915050565b7f4e487b7100000000000000000000000000000000000000000000000000000000600052603260045260246000fd5b7f4552433732313a206d696e7420746f20746865207a65726f2061646472657373600082015250565b60006157276020836140e8565b9150615732826156f1565b602082019050919050565b600060208201905081810360008301526157568161571a565b9050919050565b7f4552433732313a20746f6b656e20616c7265616479206d696e74656400000000600082015250565b6000615793601c836140e8565b915061579e8261575d565b602082019050919050565b600060208201905081810360008301526157c281615786565b905091905056fea26469706673582212209b8334b165f1d7a8aaee7bf6007179779d146600e33d4201e07f9becc81321a264736f6c63430008090033",
  "immutableReferences": {},
  "source": "// SPDX-License-Identifier: MIT\npragma solidity ^0.8.0;\n\n// import ERC721 iterface\nimport \"@openzeppelin/contracts/token/ERC721/extensions/ERC721URIStorage.sol\";\n\n// NFTs smart contract inherits ERC721 interface\ncontract NFTAuction is ERC721URIStorage{\n\n    // this contract's token collection name\n    string public collectionName;\n    // this contract's token symbol\n    string public collectionNameSymbol;\n    // total number of crypto boys minted\n    uint256 public NFTCounter;\n\n    struct NFT {\n        uint256 tokenID;\n        string tokenName;\n        string tokenURI;\n        address payable mintedBy;\n        address payable currentOwner;\n        address payable previousOwner;\n        uint256 price;\n        uint256 transNum;\n        bool onSale;\n    }\n\n    struct Auction {\n        uint256 minBid;\n        address payable highestBidder;\n        uint256 highestBid;\n        uint endTime;\n        bool ended;\n        bool claimed;\n    }\n\n    mapping(uint256 => NFT) public allNFTs;\n    mapping(uint256 => Auction) public AuctionsOfNFT;\n    mapping(uint256 => mapping(address => uint256)) public fundsByBidder; //map tokenID to fundsByBidder\n\n    // check if token name exists\n    mapping(string => bool) public tokenNameExists;\n    // check if token URI exists\n    mapping(string => bool) public tokenURIExists;\n\n    // initialize contract while deployment with contract's collection name and token\n    constructor() ERC721(\"NFT Collection\", \"NFT\") {\n        collectionName = name();\n        collectionNameSymbol = symbol();\n    }\n\n    modifier notZeroAddress() {\n        require(\n            msg.sender != address(0),\n            \"The fucntion caller is zero address account.\"\n        );\n        _;\n    }\n\n    modifier isOwner(uint256 _tokenID) {\n        require(\n            msg.sender == ownerOf(_tokenID),\n            \"Only owner can call this function.\"\n        );\n        _;\n    }\n\n    modifier notOwner(uint256 _tokenID) {\n        require(\n            msg.sender != ownerOf(_tokenID),\n            \"Owner cannot call this function.\"\n        );\n        _;\n    }\n\n    modifier notEnded(uint256 _tokenID) {\n        Auction memory auction = AuctionsOfNFT[_tokenID];\n        require(\n            block.timestamp <= auction.endTime,\n            \"Auction already ended.\"\n        );\n        _;\n    }\n\n    modifier tokenExist(uint256 _tokenID) {\n        require(\n            _exists(_tokenID),\n            \"Token ID does not exist.\"\n        );\n        _;\n    }\n\n    // mint a new NFT\n    function mintNFT(string memory _name, string memory  _tokenURI, uint256 _price) external notZeroAddress {\n        // increment counter\n        NFTCounter++;\n        // check if a token exists with the above token id =>   incremented counter\n        require(!_exists(NFTCounter));\n        // check if the token URI already exists or not\n        require(!tokenURIExists[_tokenURI]);\n        // check if the token name already exists or not\n        require(!tokenNameExists[_name]);\n    \n        // mint the token\n        _safeMint(msg.sender, NFTCounter);\n        // set token URI (bind token id with the passed in token URI)\n        _setTokenURI(NFTCounter, _tokenURI);\n    \n        // make passed token URI as exists\n        tokenURIExists[_tokenURI] = true;\n        // make token name passed as exists\n        tokenNameExists[_name] = true;\n    \n        // creat a new NFT (struct) and pass in new values\n        NFT memory newNFT = NFT(\n            NFTCounter,\n            _name,\n            _tokenURI,\n            payable(msg.sender),\n            payable(msg.sender),\n            payable(address(0)),\n            _price,\n            0,\n            false\n        );\n        // add the token id and it's NFT to all NFTs mapping\n        allNFTs[NFTCounter] = newNFT;\n    }\n  \n    // get owner of the token\n    function getTokenOwner(uint256 _tokenID) public view returns  (address) {\n        address _tokenOwner = ownerOf(_tokenID);\n        return _tokenOwner;\n    }\n  \n    // get metadata of the token\n    function getTokenMetaData(uint _tokenID) public view returns  (string memory) {\n      string memory tokenMetaData = tokenURI(_tokenID);\n      return tokenMetaData;\n    }\n  \n    // get total number of tokens minted so far\n    function getNumberOfTokensMinted() public view returns(uint256) {\n      uint256 totalNumberOfTokensMinted = NFTCounter;\n      return totalNumberOfTokensMinted;\n    }\n  \n    // get total number of tokens owned by an address\n    function getTotalNumberOfTokensOwnedByAnAddress(address _owner) public view returns(uint256) {\n      uint256 totalNumberOfTokensOwned = balanceOf(_owner);\n      return totalNumberOfTokensOwned;\n    }\n  \n    function beginAuction(uint256 _tokenID, uint256 _minBid, uint _endTime) tokenExist(_tokenID) isOwner(_tokenID) public returns (bool success) {\n        NFT memory nft = allNFTs[_tokenID];\n        nft.onSale = true;\n        Auction memory newAuction = Auction(\n            _minBid,\n            payable(msg.sender),\n            _minBid,\n            _endTime,\n            false,\n            false\n        );\n\n        allNFTs[_tokenID] = nft;\n        AuctionsOfNFT[_tokenID] = newAuction;\n        return true;\n    }\n\n    function increaseBid(uint256 _tokenID, uint256 newBid) tokenExist(_tokenID) notOwner(_tokenID) notEnded(_tokenID) public returns (bool success) {\n        Auction memory auction = AuctionsOfNFT[_tokenID];\n        if (newBid <= auction.highestBid) revert();\n        \n        fundsByBidder[_tokenID][msg.sender] = newBid;\n        auction.highestBidder = payable(msg.sender);\n        auction.highestBid = newBid;\n        AuctionsOfNFT[_tokenID] = auction;\n        return true;\n    }\n\n    function endAuction(uint256 _tokenID) tokenExist(_tokenID) public returns (bool success) {\n        Auction memory auction = AuctionsOfNFT[_tokenID];\n        if (block.timestamp < auction.endTime) revert();\n\n        NFT memory nft = allNFTs[_tokenID];\n        nft.onSale = false;\n        auction.ended = true;\n\n        allNFTs[_tokenID] = nft;\n        AuctionsOfNFT[_tokenID] = auction;\n        return true;\n    }\n\n    function withdraw(uint256 _tokenID) public tokenExist(_tokenID) notOwner(_tokenID) returns (bool success) {\n        Auction memory auction = AuctionsOfNFT[_tokenID];\n        if (!auction.ended) revert();\n        if (msg.sender == auction.highestBidder) revert();\n        address payable withdrawAccount;\n        uint withdrawAmount;\n\n        withdrawAccount = payable(msg.sender);\n        withdrawAmount = fundsByBidder[_tokenID][withdrawAccount];\n\n        if (withdrawAmount == 0) revert();\n\n        fundsByBidder[_tokenID][withdrawAccount] = 0;\n        if (!payable(msg.sender).send(withdrawAmount)) {\n            fundsByBidder[_tokenID][withdrawAccount] = withdrawAmount;\n            return false;\n        }\n        return true;\n    }\n\n    function claimNFT(uint256 _tokenID) public payable tokenExist(_tokenID) notZeroAddress returns (bool success) {\n        Auction memory auction = AuctionsOfNFT[_tokenID];\n        require(auction.ended);\n        require(!auction.claimed);\n        require(msg.sender == auction.highestBidder);\n        // get the token's owner\n        address tokenOwner = ownerOf(_tokenID);\n        // token's owner should not be an zero address account\n        require(tokenOwner != address(0));\n\n        NFT memory nft = allNFTs[_tokenID];\n        _transfer(tokenOwner, msg.sender, _tokenID);\n        // get owner of the token\n        address payable sendTo = nft.currentOwner;\n        // send token's worth of ethers to the owner\n        sendTo.transfer(msg.value);\n        nft.previousOwner = nft.currentOwner;\n        nft.currentOwner = payable(msg.sender);\n        nft.price = auction.highestBid;\n        nft.transNum++;\n        allNFTs[_tokenID] = nft;\n        return true;\n    }\n}",
  "sourcePath": "/home/oeheart/Desktop/Auction-NFT/contracts/NFTAuction.sol",
  "compiler": {
    "name": "solc",
    "version": "0.8.9+commit.e5eed63a.Emscripten.clang"
  },
  "schemaVersion": "3.4.3",
  "updatedAt": "2021-10-22T10:41:12.806Z",
  "networkType": "ethereum",
  "devdoc": {
    "kind": "dev",
    "methods": {
      "approve(address,uint256)": {
        "details": "See {IERC721-approve}."
      },
      "balanceOf(address)": {
        "details": "See {IERC721-balanceOf}."
      },
      "getApproved(uint256)": {
        "details": "See {IERC721-getApproved}."
      },
      "isApprovedForAll(address,address)": {
        "details": "See {IERC721-isApprovedForAll}."
      },
      "name()": {
        "details": "See {IERC721Metadata-name}."
      },
      "ownerOf(uint256)": {
        "details": "See {IERC721-ownerOf}."
      },
      "safeTransferFrom(address,address,uint256)": {
        "details": "See {IERC721-safeTransferFrom}."
      },
      "safeTransferFrom(address,address,uint256,bytes)": {
        "details": "See {IERC721-safeTransferFrom}."
      },
      "setApprovalForAll(address,bool)": {
        "details": "See {IERC721-setApprovalForAll}."
      },
      "supportsInterface(bytes4)": {
        "details": "See {IERC165-supportsInterface}."
      },
      "symbol()": {
        "details": "See {IERC721Metadata-symbol}."
      },
      "tokenURI(uint256)": {
        "details": "See {IERC721Metadata-tokenURI}."
      },
      "transferFrom(address,address,uint256)": {
        "details": "See {IERC721-transferFrom}."
      }
    },
    "version": 1
  },
  "userdoc": {
    "kind": "user",
    "methods": {},
    "version": 1
  }
}